:0300000002005D9E
:03000600020003F2
:0300030002004BAD
:200009007459B521051200F780F685222075215974A62522500575224180E5E52204F522E5
:2000290080DE758920758DFA759850D28E744EB521051200F780F685209975214E1099EDAE
:1B00490080FB75202075214E75224190000912008202002B0200642222222268
:2000640075350090004B120082858234E5342430F98781D0D0D083D082D0F0D0E0228581DD
:2000840037AF35BF00028014BF0102801ABF03028020BF07028026BF0F32802C75360075F2
:2000A400350175813F802575360175350375814F801A75360275350775815F800F75360304
:2000C40075350F75816F80047582FF22E536FFC40354F8F5D0C082C0835400C0E0C0E0C097
:2000E400E0C0E0C0D0E5362430F8A68185378185368222C0E0C0F0C082C083C0D0E5342420
:2001040030F8A6817403B534057534008005E53404F5347401B53509E53460237534008086
:200124001E7403B5350BE53424FE5013753400800E7407B53509E53424FD5003753400E5D3
:20014400342430F98781D0D0D083D082D0F0D0E022E5342430F98781D0D0D083D082D0F0C8
:03016400D0E022C6
:00000001FF
