:040000000200783250
:03000B0002007F71
:0300110002000EDC
:03000E0002006687
:200014007459B5210280F97F0110AF027F0085222075215974A6252250057522418005E540
:200034002204F522EF1392AF80D6438920758DFA759850D28E744EB5210280F97F0110AFDF
:20005400027F0085209975214EEF1392AF1099E580FB75202075214E752241900014120076
:0F007400A902003E020083222222220201C3328F
:2000830075890075A882D28C7535009000661200A9858234E5342430F98781D0D0D083D09B
:2000A30082D0F0D0E022D310AF01C3C0D0858137AF35BF00028014BF0102801ABF0302802D
:2000C30020BF07028026BF0F33802C75360075350175813F802675360175350375814F8093
:2000E3001B75360275350775815F801075360375350F75816F80057582FF8026E536FFC4D4
:200103000354F8F5D0C082C0835400C0E0C0E0C0E0C0E0C0D0E5362430F8A681853781858F
:200123003682D0D092AF22D310AF01C3C0D0C0E0C0F0C082C083C0D0E5342430F8A681E842
:20014300C0E0E9C0E0EAC0E0EBC0E0ECC0E0EDC0E0EEC0E0EFC0E07403B53405753400809A
:2001630005E53404F5347401B53509E5346023753400801E7403B5350BE53424FE50137567
:200183003400800E7407B53509E53424FD5003753400D0E0FFD0E0FED0E0FDD0E0FCD0E090
:2001A300FBD0E0FAD0E0F9D0E0F8E5342430F98781D0D0D083D082D0F0D0E0D0D092AF2220
:2001C300C2AFC0E0C0F0C082C083C0D0E5342430F8A681E8C0E0E9C0E0EAC0E0EBC0E0ECA8
:2001E300C0E0EDC0E0EEC0E0EFC0E07403B534057534008005E53404F5347401B53509E58C
:20020300346023753400801E7403B5350BE53424FE5013753400800E7407B53509E53424F1
:20022300FD5003753400D0E0FFD0E0FED0E0FDD0E0FCD0E0FBD0E0FAD0E0F9D0E0F8E5344D
:200243002430F98781D0D0D083D082D0F0D0E0D2AF3222D310AF01C3C0D0E5342430F987E9
:1002630081D0D0D083D082D0F0D0E0D0D092AF2252
:00000001FF
