:040000000200EE32DA
:03000B000200F5FB
:0300110002000EDC
:03000E000200CA23
:200014008529E060FB15298525E060FB15258526E060FB15267F0110AF027F00E523242059
:20003400F8A624EF1392AF74A6252450057524418005E52404F52405260523052880C18524
:2000540028E060FB15288525E060FB15258526E060FB15267F0110AF027F00E5232420F8A8
:20007400A627EF1392AF74C7252750057527308005E52704F52705260523052980C1438975
:2000940020758DFA759850D28E8523E060FB15238526E060FB15267F0110AF027F008520D2
:2000B40099AE218E20AE228E21EF1392AF052605251099D580FB7524417527307523007553
:2000D400250375260175280075290190001412011F90005312011F0200920200F92222222C
:0500F400220202393276
:2000F90075890075A882D28C7535009000CA12011F858234E5342430F98781D0D0D083D04A
:2001190082D0F0D0E022D310AF01C3C0D0858137AF35BF00028014BF0102801ABF030280B6
:2001390020BF07028026BF0F33802C75360075350175813F802675360175350375814F801C
:200159001B75360275350775815F801075360375350F75816F80057582FF8026E536FFC45D
:200179000354F8F5D0C082C0835400C0E0C0E0C0E0C0E0C0D0E5362430F8A6818537818519
:200199003682D0D092AF22D310AF01C3C0D0C0E0C0F0C082C083C0D0E5342430F8A681E8CC
:2001B900C0E0E9C0E0EAC0E0EBC0E0ECC0E0EDC0E0EEC0E0EFC0E07403B534057534008024
:2001D90005E53404F5347401B53509E5346023753400801E7403B5350BE53424FE501375F1
:2001F9003400800E7407B53509E53424FD5003753400D0E0FFD0E0FED0E0FDD0E0FCD0E01A
:20021900FBD0E0FAD0E0F9D0E0F8E5342430F98781D0D0D083D082D0F0D0E0D0D092AF22A9
:20023900C2AFC0E0C0F0C082C083C0D0E5342430F8A681E8C0E0E9C0E0EAC0E0EBC0E0EC31
:20025900C0E0EDC0E0EEC0E0EFC0E07403B534057534008005E53404F5347401B53509E515
:20027900346023753400801E7403B5350BE53424FE5013753400800E7407B53509E534247B
:20029900FD5003753400D0E0FFD0E0FED0E0FDD0E0FCD0E0FBD0E0FAD0E0F9D0E0F8E534D7
:2002B9002430F98781D0D0D083D082D0F0D0E0D2AF3222D310AF01C3C0D0E5342430F98773
:1002D90081D0D0D083D082D0F0D0E0D0D092AF22DC
:00000001FF
