:040000000201513276
:03000B0002015897
:0300110002000EDC
:03000E00020112DA
:20001400AF82438920758DFA759850D28E75280074FB25284040E528700BAE3974075E24B1
:2000340030F59980257401B528048F99801C7402B5280585089980127403B528058509999F
:2000540080087404B5280375990A10990280FBE52804F52880BA228521E060FB1521852226
:20007400E060FB1522C2AF7430B52419E534242AF98724E534242AF98782750869750931EA
:20009400120014801C7430B52517E534242AF98725E534242AF987827508697509321200D8
:2000B40014D2AF0522E534243AF9E539FF04F7E534243AF9E7B539F7C2AFE534242AF9E7F4
:2000D400B52415752430E534242AF9878275086F750931120014801DE534242AF9E7FFB593
:2000F4002513752530E534242AF9878275086F750932120014D2AF05210523020203752252
:2001140001752102752303D2AF7526317524307525307539308523E060FB152390006B12B1
:200134000182858227E527242AF8A6267435B5260575263180DFE52604F52680D802015C47
:08015400222222220202EC32F9
:20015C0075890075A882D28C753500900112120182858234E5342430F98781D0D0D083D03A
:20017C0082D0F0D0E022D310AF01C3C0D0C2AF740FB535057582FF8069858137E53520E050
:20019C000B75360043350175813F802EE53520E10B75360143350275814F801EE53520E2E6
:2001BC000B75360243350475815F800EE53520E30975360343350875816FE536FFC403541E
:2001DC00F8F5D0C082C0835400C0E0C0E0C0E0C0E0C0D0E5362430F8A681853781D2AF858C
:2001FC003682D0D092AF22C2AFE5347032E535FF14F535E53530E1067534010202D8E535D4
:20021C0030E2067534020202D8E53530E3067534030202D8E53530E0DA7534000202D8746B
:20023C0001B53432E535FF24FEF535E53530E2067534020202D8E53530E306753403020285
:20025C00D8E53530E0067534000202D8E53530E1DA75340180667402B5342FE535FF24FC99
:20027C00F535E53530E3057534038050E53530E0057534008046E53530E105753401803C56
:20029C00E53530E2DD75340280327403B5342DE535FF24F8F535E53530E005753400801C7C
:2002BC00E53530E1057534018012E53530E2057534028008E53530E3DD753403E53424302F
:2002DC00F98781D0D0D083D082D0F0D0E0D2AF22C2AFC0E0C0F0C082C083C0D0E534243066
:2002FC00F8A681E8C0E0E9C0E0EAC0E0EBC0E0ECC0E0EDC0E0EEC0E0EFC0E0E538FF04F552
:20031C0038741EB53809753800E539FF04F5397403B534057534008005E53404F534E53413
:20033C007007E53530E0E880227401B53407E53530E1DC80167402B53407E53530E2D08092
:20035C000A7403B534C9E53530E3C4D0E0FFD0E0FED0E0FDD0E0FCD0E0FBD0E0FAD0E0F9A9
:1C037C00D0E0F8E5342430F98781D0D0D083D082D0F0D0E0D2AF32228539822263
:00000001FF
